{
  "contractName": "TheProduct",
  "abi": [
    {
      "anonymous": false,
      "inputs": [
        {
          "indexed": true,
          "internalType": "uint256",
          "name": "_harvestID",
          "type": "uint256"
        }
      ],
      "name": "registeredHarvestEvent",
      "type": "event"
    },
    {
      "anonymous": false,
      "inputs": [
        {
          "indexed": true,
          "internalType": "uint256",
          "name": "_storageID",
          "type": "uint256"
        }
      ],
      "name": "registeredStorageEvent",
      "type": "event"
    },
    {
      "constant": true,
      "inputs": [
        {
          "internalType": "uint256",
          "name": "",
          "type": "uint256"
        }
      ],
      "name": "harvestProduceArray",
      "outputs": [
        {
          "internalType": "uint256",
          "name": "ID",
          "type": "uint256"
        },
        {
          "internalType": "string",
          "name": "supplierID",
          "type": "string"
        },
        {
          "internalType": "address payable",
          "name": "supplierAddress",
          "type": "address"
        },
        {
          "internalType": "string",
          "name": "productID",
          "type": "string"
        },
        {
          "internalType": "string",
          "name": "photoHash",
          "type": "string"
        },
        {
          "internalType": "string",
          "name": "harvestTimeStamp",
          "type": "string"
        },
        {
          "internalType": "string",
          "name": "harvestCaptureTime",
          "type": "string"
        }
      ],
      "payable": false,
      "stateMutability": "view",
      "type": "function"
    },
    {
      "constant": true,
      "inputs": [
        {
          "internalType": "uint256",
          "name": "",
          "type": "uint256"
        }
      ],
      "name": "storageProduceArray",
      "outputs": [
        {
          "internalType": "uint256",
          "name": "ID",
          "type": "uint256"
        },
        {
          "internalType": "string",
          "name": "marketID",
          "type": "string"
        },
        {
          "internalType": "address payable",
          "name": "marketAddress",
          "type": "address"
        },
        {
          "internalType": "uint256",
          "name": "quantity",
          "type": "uint256"
        },
        {
          "internalType": "string",
          "name": "unitOfMeasure",
          "type": "string"
        },
        {
          "internalType": "string",
          "name": "storageTimeStamp",
          "type": "string"
        },
        {
          "internalType": "string",
          "name": "storageCaptureTime",
          "type": "string"
        },
        {
          "internalType": "string",
          "name": "URL",
          "type": "string"
        },
        {
          "internalType": "string",
          "name": "hashID",
          "type": "string"
        }
      ],
      "payable": false,
      "stateMutability": "view",
      "type": "function"
    },
    {
      "constant": false,
      "inputs": [
        {
          "internalType": "uint256",
          "name": "_ID",
          "type": "uint256"
        },
        {
          "internalType": "string",
          "name": "_supplierID",
          "type": "string"
        },
        {
          "internalType": "address payable",
          "name": "_supplierAddress",
          "type": "address"
        },
        {
          "internalType": "string",
          "name": "_productID",
          "type": "string"
        },
        {
          "internalType": "string",
          "name": "_photoHash",
          "type": "string"
        },
        {
          "internalType": "string",
          "name": "_harvestTimeStamp",
          "type": "string"
        },
        {
          "internalType": "string",
          "name": "_harvestCaptureTime",
          "type": "string"
        }
      ],
      "name": "registerHarvest",
      "outputs": [],
      "payable": false,
      "stateMutability": "nonpayable",
      "type": "function"
    },
    {
      "constant": false,
      "inputs": [
        {
          "internalType": "uint256",
          "name": "_ID",
          "type": "uint256"
        },
        {
          "internalType": "string",
          "name": "_marketID",
          "type": "string"
        },
        {
          "internalType": "address payable",
          "name": "_marketAddress",
          "type": "address"
        },
        {
          "internalType": "uint256",
          "name": "_quantity",
          "type": "uint256"
        },
        {
          "internalType": "string",
          "name": "_unitOfMeasure",
          "type": "string"
        },
        {
          "internalType": "string",
          "name": "_storageTimeStamp",
          "type": "string"
        },
        {
          "internalType": "string",
          "name": "_storageCaptureTime",
          "type": "string"
        },
        {
          "internalType": "string",
          "name": "_URL",
          "type": "string"
        },
        {
          "internalType": "string",
          "name": "_hashID",
          "type": "string"
        }
      ],
      "name": "registerStorage",
      "outputs": [],
      "payable": false,
      "stateMutability": "nonpayable",
      "type": "function"
    },
    {
      "constant": true,
      "inputs": [],
      "name": "noHarvests",
      "outputs": [
        {
          "internalType": "uint256",
          "name": "",
          "type": "uint256"
        }
      ],
      "payable": false,
      "stateMutability": "view",
      "type": "function"
    },
    {
      "constant": true,
      "inputs": [],
      "name": "noStorage",
      "outputs": [
        {
          "internalType": "uint256",
          "name": "",
          "type": "uint256"
        }
      ],
      "payable": false,
      "stateMutability": "view",
      "type": "function"
    }
  ],
  "bytecode": "0x608060405234801561001057600080fd5b50611921806100206000396000f3fe608060405234801561001057600080fd5b50600436106100625760003560e01c8063368073ea1461006757806359e99057146103a85780635d1d71991461078b578063a9d0980a14610a8f578063c5710cca14610aad578063ed65b3eb14610d3e575b600080fd5b6103a6600480360360e081101561007d57600080fd5b8101908080359060200190929190803590602001906401000000008111156100a457600080fd5b8201836020820111156100b657600080fd5b803590602001918460018302840111640100000000831117156100d857600080fd5b91908080601f016020809104026020016040519081016040528093929190818152602001838380828437600081840152601f19601f820116905080830192505050505050509192919290803573ffffffffffffffffffffffffffffffffffffffff1690602001909291908035906020019064010000000081111561015b57600080fd5b82018360208201111561016d57600080fd5b8035906020019184600183028401116401000000008311171561018f57600080fd5b91908080601f016020809104026020016040519081016040528093929190818152602001838380828437600081840152601f19601f820116905080830192505050505050509192919290803590602001906401000000008111156101f257600080fd5b82018360208201111561020457600080fd5b8035906020019184600183028401116401000000008311171561022657600080fd5b91908080601f016020809104026020016040519081016040528093929190818152602001838380828437600081840152601f19601f8201169050808301925050505050505091929192908035906020019064010000000081111561028957600080fd5b82018360208201111561029b57600080fd5b803590602001918460018302840111640100000000831117156102bd57600080fd5b91908080601f016020809104026020016040519081016040528093929190818152602001838380828437600081840152601f19601f8201169050808301925050505050505091929192908035906020019064010000000081111561032057600080fd5b82018360208201111561033257600080fd5b8035906020019184600183028401116401000000008311171561035457600080fd5b91908080601f016020809104026020016040519081016040528093929190818152602001838380828437600081840152601f19601f820116905080830192505050505050509192919290505050610d5c565b005b61078960048036036101208110156103bf57600080fd5b8101908080359060200190929190803590602001906401000000008111156103e657600080fd5b8201836020820111156103f857600080fd5b8035906020019184600183028401116401000000008311171561041a57600080fd5b91908080601f016020809104026020016040519081016040528093929190818152602001838380828437600081840152601f19601f820116905080830192505050505050509192919290803573ffffffffffffffffffffffffffffffffffffffff16906020019092919080359060200190929190803590602001906401000000008111156104a757600080fd5b8201836020820111156104b957600080fd5b803590602001918460018302840111640100000000831117156104db57600080fd5b91908080601f016020809104026020016040519081016040528093929190818152602001838380828437600081840152601f19601f8201169050808301925050505050505091929192908035906020019064010000000081111561053e57600080fd5b82018360208201111561055057600080fd5b8035906020019184600183028401116401000000008311171561057257600080fd5b91908080601f016020809104026020016040519081016040528093929190818152602001838380828437600081840152601f19601f820116905080830192505050505050509192919290803590602001906401000000008111156105d557600080fd5b8201836020820111156105e757600080fd5b8035906020019184600183028401116401000000008311171561060957600080fd5b91908080601f016020809104026020016040519081016040528093929190818152602001838380828437600081840152601f19601f8201169050808301925050505050505091929192908035906020019064010000000081111561066c57600080fd5b82018360208201111561067e57600080fd5b803590602001918460018302840111640100000000831117156106a057600080fd5b91908080601f016020809104026020016040519081016040528093929190818152602001838380828437600081840152601f19601f8201169050808301925050505050505091929192908035906020019064010000000081111561070357600080fd5b82018360208201111561071557600080fd5b8035906020019184600183028401116401000000008311171561073757600080fd5b91908080601f016020809104026020016040519081016040528093929190818152602001838380828437600081840152601f19601f820116905080830192505050505050509192919290505050610ef0565b005b6107b7600480360360208110156107a157600080fd5b81019080803590602001909291905050506110bc565b604051808a8152602001806020018973ffffffffffffffffffffffffffffffffffffffff1673ffffffffffffffffffffffffffffffffffffffff168152602001888152602001806020018060200180602001806020018060200187810387528f818151815260200191508051906020019080838360005b8381101561084957808201518184015260208101905061082e565b50505050905090810190601f1680156108765780820380516001836020036101000a031916815260200191505b5087810386528c818151815260200191508051906020019080838360005b838110156108af578082015181840152602081019050610894565b50505050905090810190601f1680156108dc5780820380516001836020036101000a031916815260200191505b5087810385528b818151815260200191508051906020019080838360005b838110156109155780820151818401526020810190506108fa565b50505050905090810190601f1680156109425780820380516001836020036101000a031916815260200191505b5087810384528a818151815260200191508051906020019080838360005b8381101561097b578082015181840152602081019050610960565b50505050905090810190601f1680156109a85780820380516001836020036101000a031916815260200191505b50878103835289818151815260200191508051906020019080838360005b838110156109e15780820151818401526020810190506109c6565b50505050905090810190601f168015610a0e5780820380516001836020036101000a031916815260200191505b50878103825288818151815260200191508051906020019080838360005b83811015610a47578082015181840152602081019050610a2c565b50505050905090810190601f168015610a745780820380516001836020036101000a031916815260200191505b509f5050505050505050505050505050505060405180910390f35b610a976114c7565b6040518082815260200191505060405180910390f35b610ad960048036036020811015610ac357600080fd5b81019080803590602001909291905050506114d4565b60405180888152602001806020018773ffffffffffffffffffffffffffffffffffffffff1673ffffffffffffffffffffffffffffffffffffffff1681526020018060200180602001806020018060200186810386528c818151815260200191508051906020019080838360005b83811015610b61578082015181840152602081019050610b46565b50505050905090810190601f168015610b8e5780820380516001836020036101000a031916815260200191505b5086810385528a818151815260200191508051906020019080838360005b83811015610bc7578082015181840152602081019050610bac565b50505050905090810190601f168015610bf45780820380516001836020036101000a031916815260200191505b50868103845289818151815260200191508051906020019080838360005b83811015610c2d578082015181840152602081019050610c12565b50505050905090810190601f168015610c5a5780820380516001836020036101000a031916815260200191505b50868103835288818151815260200191508051906020019080838360005b83811015610c93578082015181840152602081019050610c78565b50505050905090810190601f168015610cc05780820380516001836020036101000a031916815260200191505b50868103825287818151815260200191508051906020019080838360005b83811015610cf9578082015181840152602081019050610cde565b50505050905090810190601f168015610d265780820380516001836020036101000a031916815260200191505b509c5050505050505050505050505060405180910390f35b610d4661183b565b6040518082815260200191505060405180910390f35b6000806040518060e001604052808a81526020018981526020018873ffffffffffffffffffffffffffffffffffffffff1681526020018781526020018681526020018581526020018481525090806001815401808255809150509060018203906000526020600020906007020160009091929091909150600082015181600001556020820151816001019080519060200190610df9929190611847565b5060408201518160020160006101000a81548173ffffffffffffffffffffffffffffffffffffffff021916908373ffffffffffffffffffffffffffffffffffffffff1602179055506060820151816003019080519060200190610e5d929190611847565b506080820151816004019080519060200190610e7a929190611847565b5060a0820151816005019080519060200190610e97929190611847565b5060c0820151816006019080519060200190610eb4929190611847565b5050509050807f448b883c57f00c96b9043903a94730121a2b3a27b573df54ca5d940ed829bb3c60405160405180910390a25050505050505050565b600060016040518061012001604052808c81526020018b81526020018a73ffffffffffffffffffffffffffffffffffffffff1681526020018981526020018881526020018781526020018681526020018581526020018481525090806001815401808255809150509060018203906000526020600020906009020160009091929091909150600082015181600001556020820151816001019080519060200190610f9b929190611847565b5060408201518160020160006101000a81548173ffffffffffffffffffffffffffffffffffffffff021916908373ffffffffffffffffffffffffffffffffffffffff160217905550606082015181600301556080820151816004019080519060200190611009929190611847565b5060a0820151816005019080519060200190611026929190611847565b5060c0820151816006019080519060200190611043929190611847565b5060e0820151816007019080519060200190611060929190611847565b5061010082015181600801908051906020019061107e929190611847565b5050509050807f49c8df757c5abba4386b3a9456d4e6d05af341cc29caf06939a2771da919f0b960405160405180910390a250505050505050505050565b600181815481106110c957fe5b9060005260206000209060090201600091509050806000015490806001018054600181600116156101000203166002900480601f01602080910402602001604051908101604052809291908181526020018280546001816001161561010002031660029004801561117b5780601f106111505761010080835404028352916020019161117b565b820191906000526020600020905b81548152906001019060200180831161115e57829003601f168201915b5050505050908060020160009054906101000a900473ffffffffffffffffffffffffffffffffffffffff1690806003015490806004018054600181600116156101000203166002900480601f0160208091040260200160405190810160405280929190818152602001828054600181600116156101000203166002900480156112455780601f1061121a57610100808354040283529160200191611245565b820191906000526020600020905b81548152906001019060200180831161122857829003601f168201915b505050505090806005018054600181600116156101000203166002900480601f0160208091040260200160405190810160405280929190818152602001828054600181600116156101000203166002900480156112e35780601f106112b8576101008083540402835291602001916112e3565b820191906000526020600020905b8154815290600101906020018083116112c657829003601f168201915b505050505090806006018054600181600116156101000203166002900480601f0160208091040260200160405190810160405280929190818152602001828054600181600116156101000203166002900480156113815780601f1061135657610100808354040283529160200191611381565b820191906000526020600020905b81548152906001019060200180831161136457829003601f168201915b505050505090806007018054600181600116156101000203166002900480601f01602080910402602001604051908101604052809291908181526020018280546001816001161561010002031660029004801561141f5780601f106113f45761010080835404028352916020019161141f565b820191906000526020600020905b81548152906001019060200180831161140257829003601f168201915b505050505090806008018054600181600116156101000203166002900480601f0160208091040260200160405190810160405280929190818152602001828054600181600116156101000203166002900480156114bd5780601f10611492576101008083540402835291602001916114bd565b820191906000526020600020905b8154815290600101906020018083116114a057829003601f168201915b5050505050905089565b6000600180549050905090565b600081815481106114e157fe5b9060005260206000209060070201600091509050806000015490806001018054600181600116156101000203166002900480601f0160208091040260200160405190810160405280929190818152602001828054600181600116156101000203166002900480156115935780601f1061156857610100808354040283529160200191611593565b820191906000526020600020905b81548152906001019060200180831161157657829003601f168201915b5050505050908060020160009054906101000a900473ffffffffffffffffffffffffffffffffffffffff1690806003018054600181600116156101000203166002900480601f0160208091040260200160405190810160405280929190818152602001828054600181600116156101000203166002900480156116575780601f1061162c57610100808354040283529160200191611657565b820191906000526020600020905b81548152906001019060200180831161163a57829003601f168201915b505050505090806004018054600181600116156101000203166002900480601f0160208091040260200160405190810160405280929190818152602001828054600181600116156101000203166002900480156116f55780601f106116ca576101008083540402835291602001916116f5565b820191906000526020600020905b8154815290600101906020018083116116d857829003601f168201915b505050505090806005018054600181600116156101000203166002900480601f0160208091040260200160405190810160405280929190818152602001828054600181600116156101000203166002900480156117935780601f1061176857610100808354040283529160200191611793565b820191906000526020600020905b81548152906001019060200180831161177657829003601f168201915b505050505090806006018054600181600116156101000203166002900480601f0160208091040260200160405190810160405280929190818152602001828054600181600116156101000203166002900480156118315780601f1061180657610100808354040283529160200191611831565b820191906000526020600020905b81548152906001019060200180831161181457829003601f168201915b5050505050905087565b60008080549050905090565b828054600181600116156101000203166002900490600052602060002090601f016020900481019282601f1061188857805160ff19168380011785556118b6565b828001600101855582156118b6579182015b828111156118b557825182559160200191906001019061189a565b5b5090506118c391906118c7565b5090565b6118e991905b808211156118e55760008160009055506001016118cd565b5090565b9056fea265627a7a7231582055cd68793db99f8ad34f248985d9d1f576bbf0aa6d8abf93f5a93a3905ffef7d64736f6c63430005100032",
  "source": "pragma solidity ^0.5.0;\r\n\r\ncontract TheProduct {\r\n\r\n    //Creating the reference data for harvest of produce\r\n    struct harvestProduce {\r\n        uint ID;\r\n        string supplierID;\r\n        address payable supplierAddress;\r\n        string productID;\r\n        string photoHash;\r\n        string harvestTimeStamp;\r\n        string harvestCaptureTime;\r\n    }\r\n\r\n    //Creating the reference data for storage of produce\r\n    struct storageProduce {\r\n        uint ID;  //this should be the same ID as the harvestProduce ID\r\n        string marketID;\r\n        address payable marketAddress;\r\n        uint quantity;\r\n        string unitOfMeasure;\r\n        string storageTimeStamp;\r\n        string storageCaptureTime;\r\n        string URL;\r\n        string hashID;\r\n    }\r\n\r\n//    constructor () public {\r\n//        //registerHarvest(ID, supplierID, supplierAddress, productID, photoHash, harvestTimeStamp, harvestCaptureTime)\r\n//        registerHarvest(001,'OZF',\"0x4657892df\",'APP','456xf87909', '20190625 14:00', '20190725 15:00');\r\n//    }\r\n\r\n    event registeredHarvestEvent (\r\n        uint indexed _harvestID\r\n    );\r\n\r\n    event registeredStorageEvent (\r\n        uint indexed _storageID\r\n    );\r\n\r\n        //Array of all the produce harvested\r\n    harvestProduce[] public harvestProduceArray;\r\n\r\n    //Array of all the produce received at storage\r\n    storageProduce[] public storageProduceArray;\r\n\r\n    //Registering a harvest instance\r\n    //Not sure if the input parameters should be read from memory...?\r\n    function registerHarvest(uint _ID, string memory _supplierID, address payable _supplierAddress,  string memory _productID, string memory _photoHash, string memory _harvestTimeStamp, string memory _harvestCaptureTime) public {\r\n        uint index = harvestProduceArray.push(harvestProduce(_ID, _supplierID, _supplierAddress, _productID, _photoHash, _harvestTimeStamp, _harvestCaptureTime));\r\n        // trigger registeredHarvest event\r\n        emit registeredHarvestEvent(index);\r\n       // buyer[index-1].push(msg.sender); - not applicable\r\n    }\r\n\r\n    //Registering a storage instance\r\n    //Not sure if the input parameters should be read from memory...?\r\n    function registerStorage(uint _ID, string memory _marketID, address payable _marketAddress, uint _quantity, string memory _unitOfMeasure, string memory _storageTimeStamp,  string memory _storageCaptureTime, string memory _URL, string memory _hashID) public {\r\n        uint index = storageProduceArray.push(storageProduce(_ID, _marketID, _marketAddress, _quantity, _unitOfMeasure, _storageTimeStamp, _storageCaptureTime, _URL, _hashID));\r\n        // trigger registeredStorage event\r\n        emit registeredStorageEvent(index);\r\n    }\r\n\r\n    //View harvest\r\n    //This is not working. I think we need to use a loop to return the information per harvest?\r\n\r\n    // function viewHarvest() public view returns (harvestProduce[]){\r\n    //     return harvestProduceArray;\r\n    // }\r\n\r\n    // //View storage\r\n    // function viewStorage() public view returns (storageProduce[]){\r\n    //     return storageProduceArray;\r\n    // }\r\n\r\n    //Checks the number of harvests in the harvest array\r\n    function noHarvests() public view returns (uint){\r\n        return harvestProduceArray.length;\r\n    }\r\n\r\n    //Checks the number of produce in the storage array\r\n    function noStorage() public view returns (uint){\r\n        return storageProduceArray.length;\r\n    }\r\n}",
  "sourcePath": "C:\\Users\\Lenovo\\OneDrive\\Desktop\\CYSE\\Origincertify_\\contracts\\product.sol",
  "compiler": {
    "name": "solc",
    "version": "0.5.16+commit.9c3226ce.Emscripten.clang"
  },
  "schemaVersion": "3.4.16",
  "updatedAt": "2023-12-03T12:41:17.956Z",
  "devdoc": {
    "methods": {}
  },
  "userdoc": {
    "methods": {}
  }
}